:0E0000000C948B000C9400000C9400000C94E7
:10000E0000000C9400000C9400000C9400000C9462
:10001E0000000C9400000C9400000C9400000C9452
:10002E0000000C9400000C9400000C9400000C9442
:10003E0000000C9400000C9414020C9400000C941C
:10004E0000000C94000078007B008B009C00A60042
:10005E00B400C000C5001027E80364000A000100C8
:10006E00001000011000010000004F4B00427566A9
:10007E00666572206F766572666C6F77004172628C
:10008E006974726174696F6E206C6F73740042755F
:10009E0073206572726F72004E41434B207265631E
:1000AE006569766564004275732074696D656F7558
:1000BE0074004661696C00556E6B6E6F776E2065CD
:1000CE0072726F7200526563656976652065727231
:1000DE006F723A0A0044617461207061636B6574DB
:1000EE00207265636569766564204F4B0A0D0000CA
:1000FE0080C007000100020076000200A301FE008E
:10010E000100620100010000F894EE27ECBBF1E063
:10011E00FBBFEBBFE5BF8DE0A2E0BB27ED938A9559
:10012E00E9F780E094E0A0E6ED930197E9F7E2E0CD
:10013E00F1E085919591009761F0A591B5910590AB
:10014E001590BF01F00105900D920197E1F7FB01AB
:10015E00F0CFEFE5EDBFE4E0EEBFC0E6D1E00C94EA
:10016E0004011A931A2FE0916201E03019F4689499
:10017E0020F816C0B1D0A3EDB0E0CBD0E091620173
:10018E00A4E5B0E0F0E0EE0FFF1FEA0FFB1FC7D2B1
:10019E00C0D0A8ECB0E0B4D2E89420F8E0E0F1C012
:1001AE00103011F0E0E0EDC0A0916101E0E2B2D2BA
:1001BE00E8C01A930A930A2F003041F491D2A3EEAD
:1001CE00B0E0E1D0A3E8B1E0EBD014C020FE11C046
:1001DE0083D010E0E09161011E1740F4E12FF0E0B2
:1001EE00ED59FE4FA08182D01F5FF4CFA8ECB0E096
:1001FE0087D2E0E0099119910895E0E0EABBEBBBEC
:10020E00E7BBE8BBE4BBE5BBE1BBE2BBE3BFE2BFE0
:10021E00ECBFEFBDEEBDEDBDECBDE7BDE6BDEBBD8C
:10022E00EABDE9BDE8BDE2BDE5BDE4BDE3BDE9BFA4
:10023E00E5BFE4BFEAB9E0E8E8B9E0E0E0BFE6B95F
:10024E00EDB9EA93E0E5EA93E3E6F1E0FA93EA9397
:10025E00E0E2EA9345D2E8EBF0E0FA93EA93A0EEFF
:10026E00B0E0AAD0A0E164D037D07894FFCFFFCF12
:10027E001A931A2FEBB3EF70AE2FE12FE07FEA2B1C
:10028E00EBBB8DE08A95F1F7DA9A8DE08A95F1F75E
:10029E00DA988DE08A95F1F774C0AA93A881E8DF09
:1002AE00E881E295E883A881E3DF85E88A95F1F796
:1002BE00219608951A930A931A2F0A81E12FF0E0DE
:1002CE00ED55FE4FE081E00FAE2FE7DF502E412EB1
:1002DE001981088123960895A2E007D2ACE0DDDFF4
:1002EE00A1E003D2E0E04E2E5E2E08951A931A2F4F
:1002FE001A3011F0571438F0E0E0EA934394A42D2D
:10030E00D9DF1A30F1F15394D89AA12FC6DFD898BD
:10031E0038C00AD29D01F9012F5F3F4FE4911E2F85
:10032E00E03019F0A12FE2DFF6CF05D22496089522
:10033E001A931A2FEAB3E06FEABBD29AD09AD19AE7
:10034E00DA98D898D998712EE12FE058E093A5014C
:10035E00E12FE054E093A601A4E1B0E0D1D1C9D1E0
:10036E00C8D1C7D1A0E284DF88EC90E00197F1F705
:10037E00A8E293DFA4E091DFA5E88FDFA6E08DDF92
:10038E00ABDF19910895BA93AA93E991F991A991C6
:10039E00B991CD0105900D920020E1F7FC01089571
:1003AE00BA93AA93A991B991EE27FF276D9166236F
:1003BE0011F03196FBCF0895B5D18D012E813F817D
:1003CE0048855985689422F8E7E0E0936201EB8551
:1003DE00FC85E093AB01F093AC01EA85E093AE01AE
:1003EE004093A8015093A9012093AF013093B0011F
:1003FE000093B1011093B201A99AA89AEE85E0304C
:10040E0011F0E1E002C0ED85EE0FE2B9E6B7E0785B
:10041E00E564E6BF8ED12F9608950A921A92FA924B
:10042E006A937A938A939A93AA93BA93EA93FA93D6
:10043E00EFB7EA9377D1109161010091600130918D
:10044E00AA0120916201E12FA091AB01B091AC0104
:10045E00F0E0EA0FFB1FAF01E1B1E87FE83011F4E5
:10046E0020E002C0E03119F4E091A70110C0E8319C
:10047E0011F0E83221F5031780F4E02F0F5FA09101
:10048E00A801B091A901F0E0AE0FBF1FEC91E3B946
:10049E00E6B7EF70E068E6BF11C0E091AD011E1740
:1004AE0060F4E091A701E160E093A701E89421F8E0
:1004BE00E6B7EF70E06AE6BFFBC033C0F9C0E035C7
:1004CE0029F4E3B1DA01EC931F5F02C0E03471F45A
:1004DE00E091AD01E1501E1720F0E6B7EF70E06835
:1004EE0003C0E6B7EF70E06CE6BFE2C0E83529F472
:1004FE00E3B1DA01EC931F5F02C0E03209F402C0EF
:10050E00E03309F402C0E83469F4203051F421FEDE
:10051E0003C0031728F005C0E091AD011E1708F4C3
:10052E0024E0C0C0E83329F422E0E6B7EF70E068BB
:10053E00BCC0E83611F0E83711F422E005C0E03611
:10054E0011F0E03791F420E010E0E89421F8E0910A
:10055E00AE01E03029F421E0E6B7EF70E06803C0A9
:10056E00E6B7EF70E06CE6BFA3C0E03811F0E039FB
:10057E0029F521FE02C021E095C0E3B1DA01EC932A
:10058E001F5FE091AE011E17B0F4E091AF01F09144
:10059E00B001309711F426E085C0A0E0E091AF01E4
:1005AE00F091B0010995E03029F0E6B7EF70E06CFC
:1005BE00E6BF7EC002C0689421F802C0E83809F494
:1005CE0002C0E83929F4E6B7EF70E068E6BF70C004
:1005DE00E03AA9F4E6B7EF70E06CE6BF689422F853
:1005EE00E091AF01F091B001309739F0A1E0E091C8
:1005FE00AF01F091B001099501C026E059C0E03B72
:10060E0011F422E002C0E83AB9F4E091B101F091A0
:10061E00B201309759F0A0E0E091B101F091B20132
:10062E0009953E2FE03011F020E002C026E03AC0DE
:10063E0000E0E89421F802C0E83BE1F421FE02C09C
:10064E0021E030C0E02F0F5FA091A801B091A90169
:10065E00F0E0AE0FBF1FEC91E3B9031720F4E6B73D
:10066E00EF70E06C05C0689421F8E6B7EF70E068B3
:10067E00E6BF1EC0E03C11F0E83C89F4E6B7EF702F
:10068E00E06CE6BFE091B101F091B201309731F02C
:10069E00A1E0E091B101F091B201099507C0E030FF
:1006AE0039F423E0E6B7EF70E06DE6BF689422F808
:1006BE001093610100936001209362013093AA01AF
:1006CE0038D02696E991EFBFF991E991B991A991A8
:1006DE009991899179916991F9901990099018954C
:1006EE00E3E8F1E0FA93EA930895D7DDA3E0B0E0F2
:1006FE0007C0A0E3BDDD88EC90E00197F1F7089507
:10070E00109639F0A89580ED97E00197F1F71197C3
:10071E00C9F70895AE17E1E008F0EE270895A59108
:10072E00B49108955A934A933A932A931A930A933B
:10073E0008955D814C813B812A811981088108953C
:00000001FF
