:080000000C9482000C94000036
:100008000C9400000C9400000C9400000C94000068
:100018000C9400000C9400000C9400000C94000058
:100028000C9400000C9400000C9400000C94000048
:100038000C9400000C9400000C9400000C94C6036F
:100048000C9400000C9400000C94000078007B00D5
:100058008B009C00A600B400C000C5001027E80370
:1000680064000A00010000100001100001000000F7
:100078004F4B00427566666572206F766572666CD6
:100088006F77004172626974726174696F6E206C77
:100098006F737400427573206572726F72004E41FF
:1000A800434B207265636569766564004275732009
:1000B80074696D656F7574004661696C00556E6B87
:1000C8006E6F776E206572726F72002575007265AB
:1000D80073706F6E73653A2025730D0A006173752E
:1000E8002025700080C00700010002007600020091
:1000F8000302EC0001006201EE000000F894EE2714
:10010800ECBBF1E0FBBFEBBFE5BF8DE0A2E0BB2796
:10011800ED938A95E9F780E094E0A0E6ED930197E6
:10012800E9F7E0EFF0E085919591009761F0A591EE
:10013800B59105901590BF01F00105900D920197BA
:10014800E1F7FB01F0CFEFE5EDBFE4E0EEBFC0E67D
:10015800D1E00C94AF00649700E010E0E0E0EABB67
:10016800EBBBE7BBE8BBE4BBE5BBE1BBE2BBE3BF82
:10017800E2BFECBFEFBDEEBDEDBDECBDE7BDE6BD3A
:10018800EBBDEABDE9BDE8BDE2BDE5BDE4BDE3BD4B
:10019800E9BFE5BFE4BFEAB9E0E8E8B9E0E0E0BFFD
:1001A800E6B9EDB9A4E6B0E063D2A0E136D278941E
:1001B8004CD4E3EDF0E0FA93EA93F8010F5F1F4F98
:1001C80049D4E0E5EA9341D4A3E6B1E0AFD1EA939C
:1001D800E3EBF1E0FA93EA93A0E570D2E030C1F0E6
:1001E800F2D1E0916101E03079F0F0E0ED54FE4F9A
:1001F800A0E0A08336D4E6EDF0E0FA93EA93E3EBCF
:10020800F1E028D4DE01FCD1A4EFB1E068D412C03B
:1002180028D4E5EEF0E0FA93EA93E0916201A4E5D0
:10022800B0E0F0E0EE0FFF1FEA0FFB1F8AD412D4F4
:10023800DE01E6D1A4EFB1E052D4BACFFFCF8AD421
:100248009D015E81129679D43097E1F0D901149618
:1002580074D48F01309759F00230E0E01E0760F047
:10026800F80131978F01D9011496ED93FC93D901C8
:100278001296FCD331975083D9015FD4FF230AF03B
:10028800F5D305C0D901EFEFFFEFED93FC9369D4E7
:1002980027960895BA93AA9326975CD410E0AC8564
:1002A800BD85E0E0F0E0ED93FC93EA89FB893196A7
:1002B800EA8BFB8B3197E4912E2FE03009F400C1D3
:1002C800E12FE03031F4253211F411E001C0D4D32C
:1002D800F6C0E130A1F4253211F4CED3EFC012E01C
:1002E80040E000E02D3211F401E0E9C02B3211F4B6
:1002F8004BE2E5C0203211F440E2E1C002C0E23036
:1003080039F450E013E0203311F40068D8C003C07A
:10031800E33009F0D4C0203310F02A3308F007C0C6
:10032800AAE05A9F502DE22FE0535E0FC8C0E22F7B
:10033800E33639F4A8D3E889F989A481AA93A9D323
:10034800BDC0E33729F49FD3AAD3F0D01E2F07C02E
:10035800E03749F498D3A3D3F5D01E2F0860026084
:100368000F7730E02FC0E43611F0E93611F404605D
:1003780002C0E53731F4E4E6F0E0EE83FF8315E0F0
:100388000CC0E83511F4086003C0E83709F096C0DE
:10039800EEE6F0E0EE83FF8314E002FF11C073D3B2
:1003A80087D3AB85AA2332F4EA85FB85AAD3EA87EB
:1003B800FB874DE2403011F01F5F01C00B7F02C088
:1003C80062D376D300FD10C0151770F407FF08C07C
:1003D80002FF04C00B7F242F115001C020E301C08D
:1003E80020E24AD35150F0CF312F01FF16C03030F0
:1003F80099F003FF06C0EE81FF812591EE83FF830C
:1004080005C0AE81BF812D91AE83BF8335D35030F7
:1004180009F051503150EBCF48C020E3EE81FF8105
:1004280090D3E887F987EE81FF813296EE83FF83C8
:10043800E885F985AA85BB85AE17BF0750F02F5F01
:10044800A885B985EA85FB85EA1BFB0BEA87FB874C
:10045800EFCF2A3328F003FF02C0295F01C0295DCE
:1004680004FD19C0213320F4A885B985119709F432
:1004780009C0531710F000FF01C011C020E207FFA8
:100488000AC020E3006102FF06C00B7F4A9301D334
:10049800503009F05150F0D2503009F051503150DD
:1004A800A885B985129708F0B8CF00FF07C050306B
:1004B80029F05150E0E2EA93ECD2F9CF10E0F5CE02
:1004C800AC85BD853AD34DD364960895FF92F82E36
:1004D800269740D3FE010DD346855785042E052A5D
:1004E80019F4EFEFFFEF1EC0DE01189606D38D0159
:1004F80048875987E0E0EA87EB87DE011C96FDD242
:100508001CD3FA93EA931A930A93E3E2F1E0FA937D
:10051800EA93DE011C96BEDE9F01A885B985E0E05E
:10052800EC93F9011ED32C96FF900895BA93AA93E1
:10053800A991B991EE27FF276D91662311F03196A5
:10054800FBCF0895BA93AA93AA27BB27E991F991FB
:100558000590002011F01196FBCFFD0108951A9324
:100568001A2FEBB3EF70AE2FE12FE07FEA2BEBBB36
:100578008DE08A95F1F7DA9A8DE08A95F1F7DA98A5
:100588008DE08A95F1F772C0AA93A881E8DFE88127
:10059800E295E883A881E3DF85E88A95F1F721965B
:1005A80008951A930A931A2F0A81E12FF0E0ED5F5C
:1005B800FD4FE081E00FAE2FE7DF502E412E19816D
:1005C800088123960895A2E07AD2ACE0DDDFA1E0AD
:1005D80076D2E0E04E2E5E2E08951A931A2F1A3026
:1005E80011F0571438F0E0E0EA934394A42DD9DFD2
:1005F8001A30E1F15394D89AA12FC6DFD89836C0A3
:10060800ABD29D01D9012F5F3F4FEC911E2FE030F7
:1006180019F0A12FE2DFF6CF4EC01A931A2FEAB3D2
:10062800E06FEABBD29AD09AD19ADA98D898D9983A
:10063800712EE12FE058E0930502E12FE054E0939A
:100648000602A4E1B0E04BD23ED23DD23CD2A0E2B9
:1006580086DF88EC90E00197F1F7A8E295DFA4E047
:1006680093DFA5E891DFA6E08FDFADDF199108954C
:1006780073D29D01689421F8E7E0E0936201E0E01D
:10068800E0930F02E0931002E0931102E09312024C
:10069800A99AA89AE6BFE1B1EC7FE1B9F901A0EA0D
:1006A800BFE038D21E2F183008F0185010B9E6B73E
:1006B800E078E564E6BF57D22496089524974AD295
:1006C8001A2F2A853B850C854D855E8521FE56C0EF
:1006D800EF85EE0FE093070240930802509309025A
:1006E800E0E0E093600100930A0220930B0230934C
:1006F8000C02E093610110930D02E6E0E0936201C1
:100708007894003069F0042E052AC1F1103021F0E8
:1007180000240216030609F001C030C068940BC01B
:10072800103039F1022E032A49F1E0910702E16005
:10073800E0930702E89420F8E89421F8E6B7EF7010
:10074800E06AE6BFE0E2F1EA67E070E0C3D121FCCD
:1007580010C0EE81FF8168857985319760407040CF
:10076800B9D131F4E5E0E0936201689421F806C05C
:10077800EECFA0916201E0E0C8D101C0E0E0F1D184
:10078800609608950A921A92FA926A937A938A93D3
:100798009A93AA93BA93EA93FA93EFB7EA93DAD1C2
:1007A800109161010091600130910A02209162016B
:1007B800E12FA0910B02B0910C02F0E0EA0FFB1FB1
:1007C800AF01E1B1E87FE83011F420E002C0E03188
:1007D80019F4E091070210C0E83111F0E83221F570
:1007E800031780F4E02F0F5FA0910802B09109026F
:1007F800F0E0AE0FBF1FEC91E3B9E6B7EF70E06829
:10080800E6BF11C0E0910D021E1760F4E0910702E7
:10081800E160E0930702E89420F8E6B7EF70E06A39
:10082800E6BFFBC033C0F9C0E03529F4E3B1DA0113
:10083800EC931F5F02C0E03471F4E0910D02E150C7
:100848001E1720F0E6B7EF70E06803C0E6B7EF7058
:10085800E06CE6BFE2C0E83529F4E3B1DA01EC93D5
:100868001F5F02C0E03209F402C0E03309F402C09D
:10087800E83469F4203051F420FE03C0031728F04F
:1008880005C0E0910D021E1708F424E0C0C0E8334B
:1008980029F422E0E6B7EF70E068BCC0E83611F052
:1008A800E83711F422E005C0E03611F0E03791F4A2
:1008B80020E010E0E89420F8E0910E02E03029F4FE
:1008C80021E0E6B7EF70E06803C0E6B7EF70E06CD0
:1008D800E6BFA3C0E03811F0E03929F520FE02C0D8
:1008E80021E095C0E3B1DA01EC931F5FE0910E02BD
:1008F8001E17B0F4E0910F02F0911002309711F436
:1009080026E085C0A0E0E0910F02F0911002099561
:10091800E03029F0E6B7EF70E06CE6BF7EC002C0B9
:10092800689420F802C0E83809F402C0E83929F4CC
:10093800E6B7EF70E068E6BF70C0E03AA9F4E6B742
:10094800EF70E06CE6BF689421F8E0910F02F09137
:100958001002309739F0A1E0E0910F02F0911002F7
:10096800099501C026E059C0E03B11F422E002C01D
:10097800E83AB9F4E0911102F0911202309759F077
:10098800A0E0E0911102F091120209953E2FE030AB
:1009980011F020E002C026E03AC000E0E89420F818
:1009A80002C0E83BE1F420FE02C021E030C0E02FA5
:1009B8000F5FA0910802B0910902F0E0AE0FBF1FCF
:1009C800EC91E3B9031720F4E6B7EF70E06C05C0CB
:1009D800689420F8E6B7EF70E068E6BF1EC0E03C18
:1009E80011F0E83C89F4E6B7EF70E06CE6BFE091FF
:1009F8001102F0911202309731F0A1E0E09111025A
:100A0800F0911202099507C0E03039F423E0E6B707
:100A1800EF70E06DE6BF689421F8109361010093D0
:100A280060012093620130930A029BD02696E991D7
:100A3800EFBFF991E991B991A9919991899179912A
:100A48006991F990199009901895E3E6F1E0FA9305
:100A5800EA9308956627772778D084E037DD2896CB
:100A68000895B1DDFE01FA93EA930895ED91FD91A1
:100A78003196FE93EE9308952A93AD85BE85EF8552
:100A8800F88909950895E889F9893497E88BF98BED
:100A98000895AD85BE85EF85F88909950895A889DB
:100AA800B98914964AD0EE83FF83AE81BF81089539
:100AB800A889B989149641D0EA87FB87089564DD2F
:100AC800A3E0B0E00CC0A0E34ADD88EC90E0019719
:100AD800F1F70895EE83FF83688779870895109664
:100AE80039F0A89580ED97E00197F1F71197C9F7CC
:100AF80008950024EF0DF01D08950024AF0DB01DDA
:100B08000895F195E195F0400895EA17E1E009F0BC
:100B1800EE2708950024112490E1AA0FBB1F001CA2
:100B2800111C0E1A1F0A18F40E0E1F1E01C0A16018
:100B38009A9599F7FD01D0010895ED91FC911197CF
:100B480008950590F491E02D08957A936A93FA93A5
:100B5800EA9308955A934A933A932A931A930A93D5
:100B680008955D814C813B812A811981088108950E
:00000001FF
